:100000000C9460030C9488030C9488030C9488036C
:100010000C9488030C9488030C9488030C94880334
:100020000C9488030C9488030C94901A0C94FF1A77
:100030000C9488030C9488030C9488030C94880314
:100040000C9488030C9488030C9488030C94880304
:100050000C9488030C9488030C9488030C94461A1F
:100060000C9488030C9488030C9488030C948803E4
:100070000C9488030C9488030C9488030C948803D4
:100080000C9488030C9488030C9488030C948803C4
:100090000C9427190C9488030C9488030C948803FF
:1000A0000C9488030C9488030C94880300000000CF
:1000B000003E5B4F5B3E3E6B4F6B3E1C3E7C3E1CEE
:1000C000183C7E3C181C577D571C1C5E7F5E1C0034
:1000D000183C1800FFE7C3E7FF0018241800FFE7EB
:1000E000DBE7FF30483A060E2629792926407F05AE
:1000F0000507407F05253F5A3CE73C5A7F3E1C1CC4
:1001000008081C1C3E7F14227F22145F5F005F5F83
:1001100006097F017F006689956A6060606060946F
:10012000A2FFA29408047E040810207E2010080874
:100130002A1C08081C2A08081E101010100C1E0C7F
:100140001E0C30383E3830060E3E0E060000000011
:100150000000005F00000007000700147F147F14F8
:10016000242A7F2A1223130864623649562050003D
:1001700008070300001C2241000041221C002A1C29
:100180007F1C2A08083E0808008070300008080814
:100190000808000060600020100804023E51494534
:1001A0003E00427F400072494949462141494D3352
:1001B0001814127F1027454545393C4A49493141B9
:1001C000211109073649494936464949291E000087
:1001D00014000000403400000008142241141414DC
:1001E0001414004122140802015909063E415D59C8
:1001F0004E7C1211127C7F494949363E41414122D1
:100200007F4141413E7F494949417F090909013EFA
:10021000414151737F0808087F00417F4100204021
:10022000413F017F081422417F404040407F021C33
:10023000027F7F0408107F3E4141413E7F0909094A
:10024000063E4151215E7F09192946264949493216
:1002500003017F01033F4040403F1F2040201F3FDC
:100260004038403F63140814630304780403615961
:10027000494D43007F4141410204081020004141A3
:10028000417F04020102044040404040000307084F
:100290000020545478407F2844443838444444284B
:1002A000384444287F385454541800087E090218F2
:1002B000A4A49C787F0804047800447D400020407A
:1002C000403D007F1028440000417F40007C0478BE
:1002D00004787C080404783844444438FC18242406
:1002E0001818242418FC7C08040408485454542486
:1002F00004043F44243C4040207C1C2040201C3C03
:100300004030403C44281028444C9090907C4464F9
:10031000544C44000836410000007700000041368C
:10032000080002010204023C2623263C1EA1A16112
:10033000123A4040207A3854545559215555794144
:100340002254547842215554784020545579400C19
:100350001E527212395555555939545454593955FC
:100360005454580000457C410002457D420001453F
:100370007C407D1211127DF0282528F07C545545D3
:10038000002054547C547C0A097F4932494949323F
:100390003A4444443A324A4848303A4141217A3A50
:1003A00042402078009DA0A07D3D4242423D3D401C
:1003B00040403D3C24FF2424487E4943662B2FFCCB
:1003C0002F2BFF0929F620C0887E09032054547979
:1003D000410000447D413048484A32384040227A4A
:1003E000007A0A0A727D0D19317D2629292F2826C7
:1003F0002929292630484D402038080808080808CF
:100400000808382F10C8ACBA2F102834FA00007B27
:10041000000008142A142222142A1408550055003A
:1004200055AA55AA55AAFF55FF55FF000000FF0029
:10043000101010FF00141414FF001010FF00FF1024
:1004400010F010F0141414FC001414F700FF000056
:10045000FF00FF1414F404FC141417101F10101FD5
:10046000101F1414141F00101010F0000000001FC3
:10047000101010101F10101010F010000000FF10CE
:100480001010101010101010FF10000000FF1400CA
:1004900000FF00FF00001F10170000FC04F41414FC
:1004A0001710171414F404F40000FF00F7141414C8
:1004B00014141414F700F7141414171410101F1048
:1004C0001F141414F4141010F010F000001F101F6B
:1004D0000000001F14000000FC140000F010F010D9
:1004E00010FF10FF141414FF141010101F00000050
:1004F00000F010FFFFFFFFFFF0F0F0F0F0FFFFFF54
:100500000000000000FFFF0F0F0F0F0F38444438AA
:1005100044FC4A4A4A347E02020606027E027E02F9
:1005200063554941633844443C04407E201E200604
:10053000027E020299A5E7A5991C2A492A1C4C7241
:1005400001724C304A4D4D303048784830BC625AC8
:10055000463D3E494949007E0101017E2A2A2A2A58
:100560002A44445F444440514A444040444A514034
:100570000000FF0103E080FF000008086B6B0836F5
:1005800012362436060F090F060000181800000066
:100590001010003040FF0101001F01011E00191D55
:1005A0001712003C3C3C3C0000000000080B00021D
:1005B00002020000090400000102020000052400FC
:1005C000100105240101010424020605240600018E
:1005D0000705810310004009040100020A00000021
:1005E00007050202400000070583024000000403E3
:1005F000090412010002EF0201404F1B06920001A4
:1006000001020301537061726B46756E0053706195
:10061000726B46756E2050726F204D6963726F0069
:100620004F4C454420616C6C6F636174696F6E2040
:100630006661696C65640000000000240027002AE0
:10064000002D00300000000000250028002B002EA7
:10065000003100000000002300260029002C002F9C
:100660000004040404040304050202020204030259
:10067000020202060606060606040402020204043A
:100680000408020110408040102040804080080291
:100690000401804020100201108010204040200002
:1006A00000000200090F0000030401000C0000001C
:1006B0000000000000000000000000000000FC1E20
:1006C00011241FBECFEFDAE0DEBFCDBF16E0A0E001
:1006D000B1E0E4E5F3E502C005900D92A83CB10756
:1006E000D9F729E0A8ECB6E001C01D92AE33B207FD
:1006F000E1F713E0C0E6D3E004C02197FE010E94B9
:100700004627CF35D107C9F70E9402200C94A829AB
:100710000C94000028E030E040E8E0913409F091CA
:100720003509508190913B09909595239083E091F4
:100730003209F091330990913A09582F542389F0E6
:100740005081952B9083E0913409F0913509908187
:1007500050913B09952B9083469521503109E9F63C
:100760000895508190959523EDCFFC0180915F070E
:10077000882311F13FB7F89482E08093E90020913B
:10078000F200822F90E01816190614F481E090E030
:10079000882339F0289844E640935E074091F100A1
:1007A0004083222339F02091F200211103C02BE66F
:1007B0002093E8003FBF08958FEF9FEF08952FB774
:1007C000F89483E08093E9009091E800892F80728B
:1007D00095FF04C09091F20080E4891B2FBF08951B
:1007E00020913907260F3327331F21323105ECF4CE
:1007F00020918607FC0190E080E0243069F082E0DF
:100800000895A09139072191AC01495E584FA40F7A
:10081000B52FB11D2C930196861798F38091390757
:10082000680F6093390780E0089581E00895089586
:1008300008950895E091150780911407E81730F4A2
:10084000F0E0EC50F94F808190E008958FEF9FEF3A
:10085000089590911507809114072FEF3FEF981797
:1008600048F4E92FF0E0EC50F94F208130E09F5F31
:1008700090931507C9010895809114079091150769
:10088000891B990B0895CF92DF92EF92FF920F93FD
:100890001F93CF93DF937C01CB018A0120918C07BA
:1008A000222389F0EB016B01C40ED51ECC15DD05AA
:1008B00069F06991D701ED91FC910190F081E02DF3
:1008C000C7010995F3CF642F0E94F003C801DF919F
:1008D000CF911F910F91FF90EF90DF90CF900895EF
:1008E000CF93DF931F92CDB7DEB7698320918C073A
:1008F0002223F9F02091AF07203258F021E030E0B8
:10090000FC013383228390E080E00F90DF91CF9150
:10091000089580918D07E82FF0E0E257F84F998114
:1009200090838F5F80938D078093AF0781E090E085
:10093000ECCF61E0CE0101960E94F003F7CF8091E9
:10094000EC0681110DC082E08093E80684E080937C
:10095000E9061092EB061092EA0681E08093EC061D
:1009600088EE96E0089581508F3008F047C0E82F58
:10097000F0E0E354FB4F0C944627DA04DE04CC0489
:10098000D204D604FE04FE04FE04E104E704EB04F2
:10099000EF04F504FE04F904809180008F778093C2
:1009A00080000895809180008F7DF9CF8091800034
:1009B000877FF5CF84B58F7784BD089584B58F7D0B
:1009C000FBCF809190008F77809390000895809165
:1009D00090008F7DF9CF80919000877FF5CF809137
:1009E000C0008F778093C00008958091C0008F7DF4
:1009F000F9CF8091C200877F8093C2000895CF9382
:100A0000DF93282F30E0F901E156F94F8491F90185
:100A1000E058F94FD491F901EF59F94FC491CC2323
:100A2000A1F081110E94B304EC2FF0E0EE0FFF1F44
:100A3000ED5AF94FA591B491EC91ED2381E090E04E
:100A400009F480E0DF91CF91089580E090E0FACF43
:100A50001F93CF93DF93282F30E0F901E156F94F30
:100A60008491F901E058F94FD491F901EF59F94F08
:100A7000C491CC23A9F0162F81110E94B304EC2F4E
:100A8000F0E0EE0FFF1FEB5BF94FA591B4918FB72C
:100A9000F894EC91111108C0D095DE23DC938FBF40
:100AA000DF91CF911F910895DE2BF8CF109286072A
:100AB00081E0809385071092600761E082E00E94E8
:100AC000280561E083E00E942805E9EBF0E08081E1
:100AD0008E7F808380818D7F808388E48093B800BF
:100AE00085E48093BC000895CF93DF9391E09093C9
:100AF00016078823B9F0C091B800D091BA00809150
:100B0000BC008A7B8093BC0060E082E00E942805E4
:100B100060E083E00E9428050E945605D093BA0049
:100B2000C093B800DF91CF910895CF93DF9390E009
:100B3000FC01E058F94F24918F59994FFC018491A1
:100B40008823C9F090E0880F991FFC01E95CF94FF8
:100B5000A591B491FC01EB5BF94FC591D491611162
:100B60000DC09FB7F8948C91209582238C93888137
:100B7000282328839FBFDF91CF910895623051F4DD
:100B80009FB7F8943C91822F809583238C93E881C2
:100B90002E2BEFCF8FB7F894EC912E2B2C938FBF89
:100BA000EACF1F93CF93DF93182FEB0161E00E94F0
:100BB0009505209739F460E0812FDF91CF911F9147
:100BC0000C942805CF3FD10511F461E0F5CFE12F5A
:100BD000F0E0E156F94FE491E150EF3008F07FC0CA
:100BE000F0E0EB50FA4F0C94462704060C06110671
:100BF0001B0625066F066F066F062F06390643068D
:100C00004D065A066F06620684B5806884BDC7BD6E
:100C1000DF91CF911F91089584B5806284BDC8BDD6
:100C2000F7CF80918000806880938000D093890006
:100C3000C0938800EDCF8091800080628093800017
:100C4000D0938B00C0938A00E3CF809180008860AE
:100C500080938000D0938D00C0938C00D9CF809179
:100C60009000806880939000D0939900C093980082
:100C7000CFCF80919000806280939000D0939B00B2
:100C8000C0939A00C5CF80919000886080939000B7
:100C9000D0939D00C0939C00BBCF8091C000806822
:100CA0008093C0008091C0008F7B8093C000C09370
:100CB000CF00AECF8091C00080628093C000C0930F
:100CC000D000A6CF8091C20088608093C20080913E
:100CD000C2008B7F8093C200C093D20099CFC038EE
:100CE000D1050CF072CF67CF3FB7F8948091E4063E
:100CF0009091E506A091E606B091E70626B5A89B7F
:100D000005C02F3F19F00196A11DB11D3FBFBA2F9D
:100D1000A92F982F8827BC01CD01620F711D811D5D
:100D2000911D42E0660F771F881F991F4A95D1F7E2
:100D30000895CF92DF92EF92FF920F931F93CF937C
:100D4000DF93D091AF0781E0D13208F09CC0C09111
:100D5000AE070E9474066B017C01809186078111A9
:100D60006CC082E08093860781E0809385078FEFD7
:100D70008093840710928307D0938207AEE8B7E090
:100D8000E2E6F7E080E0D8138DC010926107809111
:100D90006107CC0FC82BC093610780916007813039
:100DA00009F084C0109260070E9474066B017C01F8
:100DB000809161078093BB0080918807909189079B
:100DC000A0918A07B0918B07892B8A2B8B2BA1F0DE
:100DD0000E947406009188071091890720918A0764
:100DE00030918B076C197D098E099F09061717072B
:100DF0002807390708F442C08091BC0083FDD8CF92
:100E000085EC8093BC000E9474066B017C0180918C
:100E10008607823009F44CC0809184078F3F09F423
:100E200069C080918407803209F466C0809184078C
:100E3000803309F463C084E026C0809188079091D4
:100E40008907A0918A07B0918B07892B8A2B8B2B5E
:100E500009F483CF0E9474060091880710918907D6
:100E600020918A0730918B076C197D098E099F09A3
:100E7000061717072807390708F06FCF80918707F3
:100E80000E94740585E010928D071092AF071092B2
:100E90008C07DF91CF911F910F91FF90EF90DF9022
:100EA000CF9008959D9191938F5F6DCF85EEA9CFDF
:100EB0008091880790918907A0918A07B0918B074C
:100EC000892B8A2B8B2B09F4A2CF0E9474060091E8
:100ED00088071091890720918A0730918B076C1938
:100EE0007D098E099F09061717072807390708F09B
:100EF0008ECFC4CF80E0C7CF82E0C5CF83E0C3CF21
:100F0000CF93C82F80912C098F3FB1F1E091360922
:100F1000F0913709808190913C09892B8083E09181
:100F20003809F0913909908180913D098095892394
:100F30008083E0913609F0913709908180913C09D6
:100F400080958923808380913109882389F0CEBDE3
:100F500000000DB407FEFDCF8EB5E0913609F0918B
:100F60003709808190913C09892B8083CF91089526
:100F70008C2F0E948A03F1CF80912A0991E09093EF
:100F80008C078093AE0710928D071092AF0760E038
:100F900080EB97E00E9470046C2F80EB97E00E943A
:100FA0007004CF910C9499068F929F92AF92BF924A
:100FB000CF92DF92EF92FF920F931F93CF93DF9325
:100FC00080E00E94800780E10E94800780E40E9408
:100FD000800780912C098F3F09F46BC030EBF32E12
:100FE000D0E0C0E08F2D0E94800782E00E94800741
:100FF00080E10E94800710E000E0CE01885D9E4FF6
:101000006C01E0913609F0913709808190913C099B
:10101000892B8083E0913809F09139098081909182
:101020003D09892B8083E0913609F0913709908141
:1010300080913C098095892380835601A00EB11EC2
:1010400020E1E22EF50181915F0190913109992310
:1010500069F18EBD00000DB407FEFDCF8EB5EA9498
:10106000E110F0CFE0913609F0913709808190913D
:101070003C09892B8083005F1F4F0038110509F060
:10108000C0CFC058DF4FF394C115F4E0DF0709F07B
:10109000A9CFDF91CF911F910F91FF90EF90DF903B
:1010A000CF90BF90AF909F908F9008950E948A0339
:1010B000D6CF9090B8008CE08093B80090EBF92EDA
:1010C000D0E0C0E0882483948F2D0E94800782E0C6
:1010D0000E94800780E10E94800710E000E0CE01BE
:1010E000885D9E4F5C0180912A0980928C078093D5
:1010F000AE0710928D071092AF0760E480EB97E087
:101100000E9470046501C00ED11E80E1E82EF60138
:1011100061916F0180EB97E00E947004EA94E11006
:10112000F6CF0E949906005F1F4F00381105D9F6CF
:10113000C058DF4FF394C115F4E0DF0729F6909211
:10114000B800A7CF8F929F92AF92BF92CF92DF92BB
:10115000EF92FF924B015C010E9474066B017C01CF
:101160000E9474066C197D098E099F09683E7340C0
:1011700081059105A8F321E0821A9108A108B10820
:1011800088EEC80E83E0D81EE11CF11C8114910486
:10119000A104B10429F7FF90EF90DF90CF90BF90AA
:1011A000AF909F908F9008954091CA065091CB06C2
:1011B0002091C8063091C90642175307B4F49091A4
:1011C000E8009570E1F39091E80092FD19C08093DA
:1011D000F1008091CA069091CB0601968F739927F2
:1011E000892B19F48EEF8093E8008091CA069091C4
:1011F000CB0601969093CB068093CA0681E00895B2
:1012000080E00895DF92EF92FF920F931F93CF93A8
:10121000DF93D82E8A01EB017B01E40EF51ECE157B
:10122000DF0559F0D7FE12C0FE0184910E94D40858
:1012300021968111F4CF0FEF1FEFC801DF91CF91FD
:101240001F910F91FF90EF90DF9008958881EECF6E
:101250000F931F93CF93DF931F92CDB7DEB782E03A
:10126000898342E450E06CEA75E080E80E9402095C
:101270000E949F04DC0112960D911C91011511052D
:1012800089F0D801ED91FC910280F381E02DBE013F
:101290006F5F7F4FC801099597FD04C0F801008575
:1012A0001185ECCF89810F90DF91CF911F910F9124
:1012B0000895615030F02091F100FC0120830196E7
:1012C000F8CF289884E680935E070895DC01ED91BD
:1012D000FC910190F081E02D0994AF92BF92CF92E2
:1012E000DF92EF92FF920F931F93CF93DF936C01E6
:1012F0007B018B01040F151FEB015E01AE18BF08C7
:10130000C017D10759F06991D601ED91FC91019078
:10131000F081E02DC6010995892B79F7C501DF9190
:10132000CF911F910F91FF90EF90DF90CF90BF90E2
:10133000AF9008958F929F92AF92BF92CF92DF921B
:10134000EF92FF920F931F93CF93DF936C017B017A
:101350008A0180910B01882309F45CC080915F07AA
:10136000882309F457C08091CE0680FF05C0809184
:10137000E00082608093E000E801B12C8AEFA82EA3
:1013800093E0892E2AE3922E209711F4BB20D9F105
:101390000E94DF0381110AC0AA94AA20D9F161E05A
:1013A00070E080E090E00E94A208EECF8C171D064E
:1013B00011F00CF08C2F9FB7F8948092E9002091E7
:1013C000E80025FD02C09FBFDFCF282F30E0C21B01
:1013D000D30BF701815020F041914093F100FACFF7
:1013E000E20EF31EBB2021F09092E800B12CEBCF6F
:1013F0008091E80085FDE7CF9092E800BB24B3948C
:10140000209709F3F3CF5D9884E68093CD061016FC
:1014100011063CF081E090E0F6019383828310E0B6
:1014200000E0C801DF91CF911F910F91FF90EF90E5
:10143000DF90CF90BF90AF909F908F900895CF9303
:10144000DF931F92CDB7DEB76983DC01ED91FC918C
:101450000280F381E02D41E050E0BE016F5F7F4FDD
:1014600009950F90DF91CF91089583E08093E90073
:101470008091F200882319F08AE38093E8000895B0
:101480000E94DF0390E00895CF93DF931F92CDB7C2
:10149000DEB7FC018485958597FD08C02FEF3FEFEF
:1014A000358724870F90DF91CF910895CE01019663
:1014B0000E94B503019719F4898190E0F3CF8FEF73
:1014C0009FEFF0CF0F931F93CF93DF931F92CDB772
:1014D000DEB78C01FC018485958597FF0BC0CE019A
:1014E00001960E94B503019771F4898190E0F8019B
:1014F00095878487F801848595850F90DF91CF913A
:101500001F910F9108958FEF9FEFF1CFFC0184851C
:10151000958597FD0BC09FB7F89482E08093E90012
:101520008091F2009FBF90E0019608959FB7F894D4
:1015300082E08093E9008091F2009FBF90E00895DF
:101540004F925F926F927F928F929F92AF92BF92D3
:10155000CF92DF92EF92FF920F931F93CF93DF937F
:10156000CDB7DEB72A970FB6F894DEBF0FBECDBF5A
:101570009A8789872A013B0109831A832B833C833D
:10158000DC015B96BC92AE925A9781E0AA94AB289C
:1015900009F080E0E985FA8583AF4082518262825A
:1015A000738289819A81AB81BC8184839583A68370
:1015B000B783C086D186E286F38666A577A580A923
:1015C00091A90E947A2820E030E04AE754E40E9482
:1015D000D2276D837E838F839887E985FA85448639
:1015E0005586668677869B01AC0169817A818B81FD
:1015F0009C810E9431294B015C01A985BA855096D6
:101600008D929D92AD92BC9253972D813E814F81D8
:101610005885C701B6010E94D2276B017C01E9857C
:10162000FA85C48AD58AE68AF78A808D918D0197DA
:1016300059F5A301920160E070E0CB010E946027A0
:10164000A985BA851C966D937D938D939C931F9766
:10165000A501940160E070E0CB010E946027E9855C
:10166000FA85608B718B828B938BA701960160E06A
:1016700070E0CB010E946027A985BA8554966D93CE
:101680007D938D939C9357972A960FB6F894DEBF5F
:101690000FBECDBFDF91CF911F910F91FF90EF90C3
:1016A000DF90CF90BF90AF909F908F907F906F9082
:1016B0005F904F9008952F923F924F925F926F925A
:1016C0007F928F929F92AF92BF92CF92DF92EF92D2
:1016D000FF920F931F93CF93DF93CDB7DEB72F9772
:1016E0000FB6F894DEBF0FBECDBF9A8389838FB744
:1016F000F8942091E0063091E1064091E206509185
:10170000E3062A873B874C875D878FBFE981FA8193
:1017100082A193A1A4A1B5A14A855B856C857D8535
:10172000481B590B6A0B7B0B86A597A5A0A9B1A9ED
:10173000481759076A077B0708F433C1FF87EE870C
:10174000048CF58DE02D20813181428153812983E4
:101750003A834B835C83AE85BF859096ED91FC9177
:1017600060817181828193810E9460274B015C01BD
:10177000EE85FF8522A533A544A555A569817A810B
:101780008B819C810E9460276B017C01AE85BF85A7
:1017900050962D913D914D915C915397C501B401A7
:1017A0000E943129EE85FF8526A137A140A551A5CC
:1017B0000E9461272B013C01AE85BF8596964D9214
:1017C0005D926D927C929997DB96BC91BD83B1112D
:1017D00018C0EE85FF852485358546855785C70168
:1017E000B6010E9431299B01AC01C301B2010E94E4
:1017F0006027AE85BF8596966D937D938D939C9360
:101800009997EE85FF8546A057A060A471A416A9FC
:1018100007A930AC21AC212F302F432D522DC3010D
:10182000B2010E942C2918160CF098C0812F902F1D
:10183000A32DB22DEE85FF8586A397A3A0A7B1A700
:10184000BD81BB2309F4A9C0EE85FF8524853585BC
:1018500046855785C501B4010E9431294B015C01C1
:10186000AE85BF8554962D913D914D915C915797D2
:10187000C701B6010E9431299B01AC01EE85FF85AD
:1018800066A177A180A591A50E946027A50194017A
:101890000E9461276B017C019B01AC01612F702FBD
:1018A000832D922D0E94CD2787FD1BC0AE85BF855D
:1018B000D2961C91D297D3960C91D397D4963C9004
:1018C000D497D5962C90212F302F432D522DB60131
:1018D000C7010E94CD2787FD04C01C2D0D2D3E2C75
:1018E0002F2CAE85BF855E96ED91FC91812F902FB8
:1018F000A32DB22D80839183A283B38329813A8162
:101900004B815C81AE85BF859A962D933D934D9317
:101910005C939D972A853B854C855D8592962D939A
:101920003D934D935C93959781E02F960FB6F89475
:10193000DEBF0FBECDBFDF91CF911F910F91FF9002
:10194000EF90DF90CF90BF90AF909F908F907F905F
:101950006F905F904F903F902F900895AE85BF8518
:10196000D2962D913D914D915C91D5972E833F83D9
:1019700048875987C301B2010E94CD2787FF60CFF6
:101980002E813F8148855985AE85BF8596962D93DA
:101990003D934D935C93999753CF812C912C540197
:1019A0005FCF80E0C2CFAF92BF92CF92DF92EF9233
:1019B000FF921F93CF93DF937C0110E0C7E0D0E04C
:1019C00083E2C82ED12CAA24A394B12C60E0F701A5
:1019D00080810E942805C6010197F1F7F7018181F6
:1019E0000E94FF04892B39F0C5010C2E01C0880F1D
:1019F0000A94EAF7182B61E0F70180810E9428051C
:101A0000C6010197F1F7219708F7812FDF91CF9158
:101A10001F91FF90EF90DF90CF90BF90AF9008950F
:101A20000F931F93CF93DF938C0160E0FC018281C1
:101A30000E94280583E290E00197F1F7C8010E9417
:101A4000D30CC82FD0E0DC2FCC27C8010E94D30CC8
:101A5000C82B61E0F80182810E94280560E070E0F7
:101A600080EC9FE7C2FD10C083E0D695C7958A95AC
:101A7000E1F7BE0190E080E00E947A2820E030E0AB
:101A800040E85EE30E943129DF91CF911F910F91D1
:101A900008950F931F93CF93DF93EC018E898230CB
:101AA00009F453C0833009F4ACC0813009F05CC044
:101AB000EC81FD81E41BF50BAF01421B530B77FD5D
:101AC0003FC08E819F8168177907D4F557FF04C006
:101AD000240F351F50E040E08C819D81FA01E20F18
:101AE000F31F8E179F071CF49C01241B350B121645
:101AF000130634F5FB0177FD3796A3E0F595E795DE
:101B0000AA95E1F7F695FE2FEE27F795E795E40FF6
:101B1000F51FE85DFE4F6770772781E090E001C018
:101B2000880F6A95EAF7482F0130110509F472C051
:101B300008F47CC02E0F3F1F0230110509F483C04A
:101B4000DF91CF911F910F910895AC81BD81CD019F
:101B5000861B970BBC0161507109EE81FF81E41B6C
:101B6000F50BAF01421B530B77FDEACF8C819D81B2
:101B7000681779072CF757FF04C0240F351F50E072
:101B800040E08E819F81FA01E20FF31F8E179F07BD
:101B90001CF49C01241B350B121613068CF6922F95
:101BA000A42FA695A695A69580E8A89FD0011124FC
:101BB000A60FB71FA85DBE4F477009F457C058E085
:101BC000541B452F652F70E0FB01E05DFA4F8081CB
:101BD000251708F0B0C0621B71092FEF30E002C07A
:101BE000359527956A95E2F7822301301105A9F111
:101BF00008F464C00230110509F0A2CF2C918227AD
:101C00002EC0AE81BF81CD01861B970BBC016150F8
:101C1000710955CF2E0F3F1FE217F30709F490CF3C
:101C20008191DF011197842B8C93F6CF80952E0F35
:101C30003F1FE217F30709F483CF9191DF0111975A
:101C400098239C93F6CFE217F30709F479CF81919B
:101C5000DF01119784278C93F6CF2C91822B8C93E4
:101C6000941708F46DCF941BA058BF4F983008F418
:101C700047C00230110531F5FD01892F20812095E3
:101C80002083E058FF4F88508830C0F728EF290F95
:101C900026952695269530E02F5F3F4F3695322FBB
:101CA000222737952795A20FB31F977009F448CFC5
:101CB000E92FF0E0E85DFA4F808132C080952C91E9
:101CC0008223CDCF81E00130110509F080E08195BC
:101CD000FD01292F8083E058FF4F28502830D0F78E
:101CE00028EF290F26952695269530E02F5F3F4F48
:101CF0003695322F222737952795A20FB31F97705D
:101D0000992309F41DCFE92FF0E0E85DFA4F8081B7
:101D10000130110541F058F00230110509F010CFE3
:101D20009C91892702C09C91892B8C9309CF809527
:101D30009C918923FACF0130110509F48ECF08F464
:101D4000BDCF0230110509F459CF8DCF0F931F93EA
:101D5000CF93DF93EC018E89823009F45EC083302B
:101D600009F4B5C0813009F067C0AC81BD81CD01F7
:101D7000841B950BAC014150510957FD49C08C8122
:101D80009D81481759070CF043C077FF04C0260F08
:101D9000371F70E060E08E819F81FB01E20FF31F2F
:101DA0008E179F071CF49C01261B370B1216130677
:101DB0007CF5922FA62FA695A695A69580E8A89FBC
:101DC000D0011124A40FB51FA85DBE4F677009F4A0
:101DD0008FC048E0461B642F70E0FB01E05DFA4FC6
:101DE0008081241708F002C1621B71092FEF30E0D7
:101DF00002C0359527956A95E2F7822301301105D7
:101E000009F46DC008F49CC00230110509F4F8C053
:101E1000DF91CF911F910F910895EC81FD81E61B19
:101E2000F70BAE81BF81CD01841B950BAC014150F6
:101E30005109BF01621B730B57FDEACF8E819F8151
:101E4000481759072CF777FF04C0260F371F70E09B
:101E500060E08C819D81FB01E20FF31F8E179F07CD
:101E60001CF49C01261B370B121613068CF6FA0184
:101E700057FD379693E0F595E7959A95E1F7F69536
:101E8000FE2FEE27F795E795E60FF71FE85DFE4F6B
:101E90004770552781E090E001C0880F4A95EAF726
:101EA000482F0130110509F488C008F492C02E0FA4
:101EB0003F1F0230110509F0ABCFE217F30709F419
:101EC000A7CF8191DF01119784278C93F6CFEE8104
:101ED000FF81E61BF70BBF01621B730B4ECF2C91EA
:101EE000822B8C93941708F493CF941BA058BF4F68
:101EF000983008F447C00230110531F5FD01892FF3
:101F0000208120952083E058FF4F88508830C0F70B
:101F100028EF290F26952695269530E02F5F3F4F15
:101F20003695322F222737952795A20FB31F97702A
:101F300009F46ECFE92FF0E0E85DFA4F808132C0FE
:101F400080952C918223CDCF81E00130110509F0DD
:101F500080E08195FD01292F8083E058FF4F2850B4
:101F60002830D0F728EF290F26952695269530E0C2
:101F70002F5F3F4F3695322F222737952795A20F97
:101F8000B31F9770992309F443CFE92FF0E0E85D80
:101F9000FA4F80810130110541F058F002301105EF
:101FA00009F036CF9C91892702C09C91892B8C9394
:101FB0002FCF80959C918923FACF2E0F3F1FE217D8
:101FC000F30709F425CF8191DF011197842B8C93BE
:101FD000F6CF80952E0F3F1F2E173F0709F418CF1D
:101FE0009191DF01119798239C93F6CF0130110551
:101FF00009F475CF08F4A4CF0230110509F075CFAC
:102000002C9182276ECFDC0177FD67C018968D91E9
:102010009C911997681779070CF05FC057FD5DC058
:102020001A968D919C911B97481759070CF055C033
:1020300056968C9156978230B9F0833041F18130B9
:1020400049F414968D919C91841B950BAB01BC01B6
:10205000615071092130310521F108F43FC022306F
:10206000310509F458C008951496ED91FC91159727
:10207000E61BF70BBF016150710916968D919C917B
:10208000FC01E41BF50BAF0141505109E3CF16965B
:102090008D919C91861B970BBA01AC01415051095F
:1020A000D9CFFA0157FD3796A3E0F595E795AA95A4
:1020B000E1F7F695FE2FEE27F795E795E60FF71F68
:1020C000E85DFE4F4770552721E030E001C0220F48
:1020D0004A95EAF78081822B80830895FA0157FDA3
:1020E000379623E0F595E7952A95E1F7F695FE2FCB
:1020F000EE27F795E795E60FF71FE85DFE4F47706F
:10210000552781E090E001C0880F4A95EAF7809555
:1021100090818923E1CFFA0157FD379683E0F59549
:10212000E7958A95E1F7F695FE2FEE27F795E79567
:10213000E60FF71FE85DFE4F4770552721E030E0BE
:1021400001C0220F4A95EAF780818227C5CF089502
:10215000FC016370668B84819581268137816130B3
:1021600039F0633029F0918780873387228708957B
:10217000318720879387828708952F923F924F92CD
:102180005F926F927F928F929F92AF92BF92CF9207
:10219000DF92EF92FF920F931F93CF93DF93CDB710
:1021A000DEB76A970FB6F894DEBF0FBECDBF9A8F29
:1021B000898F7A8369834A01D22E18870F8337016A
:1021C000BC2CDC0159962D913C915A972115310573
:1021D00009F015C118968D919C9119976817790788
:1021E0000CF0D7C11A968D919C91481759070CF0A5
:1021F000D0C14C2C512CB6E0CB9E600D711D11242A
:102200007C876B87161617060CF0C3C1EA2DF0E029
:10221000FA87E98793E0EE0FFF1F9A95E1F7F88BB5
:10222000EF87CF01840F951F181619060CF0B1C166
:10223000A98DBA8D58968C91811104C0BFEABD1545
:1022400008F4D394A98DBA8DED91FC911197028475
:10225000F385E02DCD010995B5E0DB9EC001112489
:10226000E981FA81FC83EB83312C212C9C012455DC
:102270003F4F388F2F8B4A2D50E05E8B4D8BEF896F
:10228000F88DE20DF31D44919E828D82D12CC12CDC
:1022900069817A81620D731D7A8B698B842F90E03E
:1022A0009C8B8B8BE98DFA8DA081B18140FF82C020
:1022B000F1E0BF126FC0AF126DC01C96ED91FC91A2
:1022C0002F813885A4014C0D5D1D69897A89898D1E
:1022D0009A8D0995EB89FC89F595E7954E2F5FEF6F
:1022E000C51AD50A6D817E818D899E89680F791FF7
:1022F0007E836D8398E0C916D10481F6AFEF2A1A68
:102300003A0AEB81FC81E40DF51DFC83EB83F5E0DB
:102310002F16310409F0B3CF2F81388526153705E4
:10232000B9F0A98DBA8DED91FC91B1E0BB1257C007
:10233000AB1255C069817A816B5F7F4F0088F1894C
:10234000E02D830128E030E0A401898D9A8D099564
:10235000A98DBA8DED91FC9111970688F789E02D32
:10236000CD016A960FB6F894DEBF0FBECDBFDF91E8
:10237000CF911F910F91FF90EF90DF90CF90BF9082
:10238000AF909F908F907F906F905F904F903F9015
:102390002F9009941E96ED91FC91EF80F8840985A9
:1023A0001A8592014D815E816B817C81898D9A8D28
:1023B000099590CF2F8138852615370509F48ACFE6
:1023C00031E0B31207C0A31205C01C96ED91FC9139
:1023D000930178CF1E96ED91FC917301E0CF6B8550
:1023E0007C85641975090684F785E02D73010F85D6
:1023F00018899201A401898D9A8D0995A9CFF901B7
:1024000034969491329745915491D91AB7E0DB9E56
:10241000400D511D1124F901259134913C8B2B8BDA
:10242000FA0125903490FA013296749031963491E5
:10243000398B329664903196449041E04C1518F0F7
:102440004A1508F07FC0662D062C000C770B7C83A4
:102450006B83842D042C000C990B9E838D83A98D96
:10246000BA8DED91FC9111970284F385E02DCD0199
:102470000995512CD12CC12CEA2DF0E0FA87E9877F
:102480002B2D30E03C872B87A401440D511D47FCC8
:102490005A95588F4F8B69817A81660D711D67FC43
:1024A0007A957E876D877989C71608F051CF2C2DD4
:1024B00030E04D815E81420F531FA985BA854A9F46
:1024C000C0014B9F900D5A9F900D1124FC01E80D07
:1024D000F91DF88BEF87852D612C4F89588D420FA0
:1024E000531F5E8B4D8B671408F050C044244394F7
:1024F000480E877041F4C1010196EB89FC89E20D19
:10250000F31DD4901C01D7FE19C0A98DBA8DED9191
:10251000FC91662D70E0B1E0BB1219C0AB1217C080
:102520002D853E85620F731F0484F585E02D2F8174
:1025300038854D895E89898D9A8D0995DD0C639466
:10254000842DD1CF1E821D821C821B8288CF4B819D
:102550005C81640F751FAB85BC856A9FC0016B9F52
:10256000900D7A9F900D112469817A81680F791FEF
:102570000684F785E02DEF80F88409851A859D0192
:102580004F855889898D9A8D0995D8CF570CC3945A
:102590008ACF6A960FB6F894DEBF0FBECDBFDF912B
:1025A000CF911F910F91FF90EF90DF90CF90BF9050
:1025B000AF909F908F907F906F905F904F903F90E3
:1025C0002F9008958F929F92AF92CF92EF92FF92A9
:1025D0000F931F93CF93DF93EC01262F898D9A8D54
:1025E000009709F051C06A30D1F41D861C868D8990
:1025F00048E0849F900111248E859F85820F931F50
:102600009F878E8781E090E0DF91CF911F910F919E
:10261000FF90EF90CF90AF909F908F9008956D3086
:1026200089F3CC88AD888F898823C1F08C859D85FE
:1026300036E0C39E800D911D1124488559854817A9
:10264000590764F44E855F851D861C8638E0A39E7D
:10265000C0011124840F951F9F878E87EA88FB880D
:10266000088919894E855F856C857D85CE010E941C
:10267000BD102C898C859D8546E0249F800D911D81
:1026800011249D878C87BECF6A3069F41D861C8615
:10269000FC013896E4912D898E859F85E29F800DFF
:1026A000911D1124ADCF6D3009F4ACCFFC013496EF
:1026B0003491631708F4A6CF3296E491E61708F434
:1026C000A1CFFC01329685909490462F431B342F66
:1026D00047E0349F800C911C1124F4013296349110
:1026E0003196E4913323A9F1EE2399F1CC88F401DA
:1026F0003596E491AD884F89442301F10E2E000CEC
:10270000FF0BE30FF11DCE9EA001CF9E500D1124B3
:102710006C857D85460F571F688579856417750719
:102720006CF44E855F851D861C86FC013896E4910D
:10273000AE9E400D511D11245F874E87EA88FB88AD
:10274000088919894E855F856C857D85CE010E943B
:10275000BD10F4013496E4912C898C859D85E29F0F
:10276000800D911D11248DCF6F927F928F929F9239
:10277000AF92BF92CF92DF92EF92FF920F931F938F
:10278000CF93DF93EC016B015A0139014801E881D5
:10279000F9810284F385E02D0995E881F9810288A9
:1027A000F389E02D87019301A501B601CE010995BA
:1027B000A501480D591D41505109E881F981028850
:1027C000F389E02D9301B601CE010995E881F981E5
:1027D0000088F189E02D9401A501B601CE0109958B
:1027E000C60CD71CB60161507109E881F9810088D7
:1027F000F189E02D9401A501CE010995E881F981C7
:102800000688F789E02DCE01DF91CF911F910F91BE
:10281000FF90EF90DF90CF90BF90AF909F908F9000
:102820007F906F9009946F927F928F929F92AF9258
:10283000BF92CF92DF92EF92FF920F931F93CF93AD
:10284000DF935C01EB016A01490138018701DC017A
:10285000ED91FC916217730719F5641675062CF05B
:10286000962D872D3A01C92ED82E960126193709A3
:102870002F5F3F4F048CF58DE02DA301BE01C501F4
:102880000995DF91CF911F910F91FF90EF90DF900D
:10289000CF90BF90AF909F908F907F906F90089552
:1028A0004615570591F42617370724F0892D4B015B
:1028B000C22FD82F9E01281939092F5F3F4F068C50
:1028C000F78DE02DA601B401DACF0284F385E02D67
:1028D0000995D501ED91FC910488F589E02D8301DE
:1028E0009401A601BE01C5010995D501ED91FC91A8
:1028F0000688F789E02DC501DF91CF911F910F91D7
:10290000FF90EF90DF90CF90BF90AF909F908F900F
:102910007F906F900994EF92FF920F931F93DC01C9
:102920001A960D911C911B9718962D913C91199711
:10293000ED91FC9100A0F1A1E02D7B0150E040E081
:1029400070E060E009951F910F91FF90EF9008955E
:102950004F925F926F927F928F929F92AF92BF92AF
:10296000CF92DF92EF92FF920F931F93CF93DF935B
:102970006C012B015A0139014801DC01ED91FC91F8
:102980000284F385E02D0995E201640C751CD601E3
:10299000ED91FC91C615D7055CF40088F189E02D16
:1029A00087019401A501BE01C60109952196EFCFCB
:1029B0000688F789E02DC601DF91CF911F910F9115
:1029C000FF90EF90DF90CF90BF90AF909F908F904F
:1029D0007F906F905F904F9009948F929F92AF92EB
:1029E000BF92CF92DF92EF92FF920F931F93CF93FC
:1029F000DF93EC015B014A016901E881F9810284FE
:102A0000F385E02D099595012C0D3D1D21503109CF
:102A1000E881F9810488F589E02D78018401A40119
:102A2000B501CE010995E881F9810688F789E02D85
:102A3000CE01DF91CF911F910F91FF90EF90DF902A
:102A4000CF90BF90AF909F908F9009948F929F925C
:102A5000AF92BF92CF92DF92EF92FF920F931F93AC
:102A6000CF93DF93EC015B014A0169017801E881B2
:102A7000F9810284F385E02D0995C80CD91C8601E3
:102A800001501109E881F9810488F589E02D95014B
:102A9000A401B501CE010995E881F9810688F7897D
:102AA000E02DCE01DF91CF911F910F91FF90EF901C
:102AB000DF90CF90BF90AF909F908F900994EF924E
:102AC000FF920F931F93DC01ED91FC9100A0F1A107
:102AD000E02D09951F910F91FF90EF9008950F93AE
:102AE0001F93DC01ED91FC91068CF78DE02D09958B
:102AF0001F910F9108950F931F93DC01ED91FC91AD
:102B0000048CF58DE02D09951F910F910895DC013E
:102B1000ED91FC910084F185E02D09942F923F9274
:102B20004F925F926F927F928F929F92AF92BF92DD
:102B3000CF92DF92EF92FF920F931F93CF93DF9389
:102B400000D000D000D0CDB7DEB73C016A013E8393
:102B50002D83FC82EB825801A41AB50AB7FE03C08C
:102B6000B194A194B1088D809E80861A970A97FE31
:102B700003C09194819491088A149B045CF0902F77
:102B8000812F0D811E819D838E839C2D8D2D6B0148
:102B9000692F782F0C151D055CF09D818E817E8339
:102BA0006D83692F782F902F812F8601C92ED82E03
:102BB0001601201A310A2B012D813E81421A530A37
:102BC00057FE03C0519441945108710137FE03C070
:102BD0003FEFE31AF30AF594E7948D819E818617FF
:102BE00097075CF5A1E0B0E0BA83A983C016D106CF
:102BF0004CF1D301ED91FC910484F585E02D2B81FE
:102C00003C81A8016D817E818A149B041CF04D815A
:102C10005E81B801C3010995E418F508F7FE0AC002
:102C20002D813E8189819A81280F391F3E832D8312
:102C3000E20CF31C0F5F1F4FD9CF2FEF3FEF3A830A
:102C40002983D4CF26960FB6F894DEBF0FBECDBF32
:102C5000DF91CF911F910F91FF90EF90DF90CF9078
:102C6000BF90AF909F908F907F906F905F904F90AC
:102C70003F902F900895089590E080E008954F923E
:102C80005F926F927F92AF92BF92CF92DF92EF925C
:102C9000FF920F931F93CF93DF9300D000D000D00B
:102CA000CDB7DEB79E838D83CB01BA01AD81BE81E6
:102CB0005A96AD90BC9020E030E040E251E40E9492
:102CC000CD27ED81FE8187FF54C0EC5AFF4F408035
:102CD00051806280738020E030E0A901C301B2011D
:102CE0000E94CD2787FD30C0ED81FE81E85AFF4F5D
:102CF00080819181A281B38189839A83AB83BC83D4
:102D000020E030E0A901BC01CD010E94CD2787FD64
:102D10001BC0ED81FE81E45AFF4FC080D180E2806C
:102D2000F38020E030E0A901C701B6010E94CD2761
:102D300087FD0AC009811A812B813C81B301A20160
:102D40008D819E810E94A00A26960FB6F894DEBF60
:102D50000FBECDBFDF91CF911F910F91FF90EF90EC
:102D6000DF90CF90BF90AF907F906F905F904F902B
:102D70000895E85BFF4F408051806280738020E0BF
:102D800030E0A901C301B2010E94CD2787FDDCCF4D
:102D9000ED81FE81E45BFF4F80819181A281B3814F
:102DA00089839A83AB83BC8320E030E0A901BC0116
:102DB000CD010E94CD2787FDC7CFED81FE81E05B6D
:102DC000FF4FABCF85ED8093BC0080918807909139
:102DD0008907A0918A07B0918B070796A11DB11DA5
:102DE00023E0B695A795979587952A95D1F72091D9
:102DF000BC0024FD03C01092860708954091880707
:102E00005091890760918A0770918B07452B462B5B
:102E1000472B69F30097A105B10541F02AE22A95F5
:102E2000F1F700C00197A109B109E1CF80918707AF
:102E30000C9474050E94A329FB0101900020E9F77E
:102E40003197AF01461B570BDC01ED91FC910280DD
:102E5000F381E02D09948F929F92AF92BF92EF92EF
:102E6000FF920F931F93CF93DF93CDB7DEB7A19758
:102E70000FB6F894DEBF0FBECDBF7C01FA01CB01C7
:102E800019A2223008F42AE08E010F5D1F4F822E16
:102E9000912CB12CA12CBF01A50194010E942427E3
:102EA000F901CA016A300CF5605DD8016E938D019D
:102EB000232B242B252B79F790E080E0109721F02D
:102EC000BD01C7010E941C17A1960FB6F894DEBF82
:102ED0000FBECDBFDF91CF911F910F91FF90EF906B
:102EE000BF90AF909F908F900895695CDECFCF9296
:102EF000DF92EF92FF920F931F93CF93DF936B01BB
:102F0000770FEE08FF08F7FE1BC0EC016DE20E9490
:102F100066098C0144275527BA014C195D096E09D1
:102F20007F092AE0CE010E942B17800F911FDF91AD
:102F3000CF911F910F91FF90EF90DF90CF90089568
:102F40002AE0B701A601DF91CF911F910F91FF9069
:102F5000EF90DF90CF900C942B17CF93DF93BC01B1
:102F60008CEB97E00E941C17EC016FE875E08CEB8E
:102F700097E00E941C178C0F9D1FDF91CF91089541
:102F8000CF92DF92EF92FF92CF93DF936C01990F74
:102F9000EE08FF08F7FE23C06DE28CEB97E00E947D
:102FA0006609EC0144275527BA014C195D096E09E1
:102FB0007F092AE08CEB97E00E942B17C80FD91FDE
:102FC0006FE875E08CEB97E00E941C178C0F9D1F3B
:102FD000DF91CF91FF90EF90DF90CF9008952AE09E
:102FE000B701A6018CEB97E00E942B17EC01E8CF0C
:102FF0002F923F924F925F926F927F928F929F9209
:10300000AF92BF92CF92DF92EF92FF921F93CF9336
:10301000DF93EC016A017B01722EAB019601CB01BB
:10302000B6010E949E2962E975E0811126C0460121
:103030005701E894B7F82FEF3FEF4FE75FE7C5017F
:10304000B4010E949E2981110CC02FEF3FEF4FE782
:103050005FE7C501B4010E94CD2766E975E0181647
:1030600064F02FEF3FEF4FE75FE4C701B6010E9426
:103070002C291816B4F46AE975E0CE01DF91CF91DE
:103080001F91FF90EF90DF90CF90BF90AF909F90F7
:103090008F907F906F905F904F903F902F900C9407
:1030A0001C172FEF3FEF4FE75FECC701B6010E94FF
:1030B000CD2787FDE0CF20E030E0A901C701B601B0
:1030C0000E94CD27312C212C87FF09C06DE2CE0153
:1030D0000E9466091C01F7FAF094F7F8F09410E0EA
:1030E00060E070E080E09FE3711641F020E030E0A6
:1030F00040E251E40E94D2271F5FF6CFA70196015C
:103100000E9461272B013C010E944B284B015C016E
:103110002AE0BC01A401CE010E942B177C01E20C25
:10312000F31C1123C1F1C501B4010E947A289B014F
:10313000AC01C301B2010E9460274B015C016EE249
:10314000CE010E946609E80EF91E115020F120E020
:1031500030E040E251E4C501B4010E9431292B0165
:103160003C010E944B284B01B12CA12C2AE0B50157
:10317000A401CE010E942B17E80EF91EC501B4016F
:103180000E947A289B01AC01C301B2010E94602712
:103190004B015C01DACFC701DF91CF911F91FF9006
:1031A000EF90DF90CF90BF90AF909F908F907F90E7
:1031B0006F905F904F903F902F900895CF93DF9343
:1031C000AB01BC0122E08CEB97E00E94F817EC0108
:1031D0006FE875E08CEB97E00E941C178C0F9D1F29
:1031E000DF91CF9108956115710511F00C941C17B2
:1031F00090E080E00895CF93DF93EC016EE975E0F5
:103200008CEB97E00E94F318BE018CEB97E00E94D4
:10321000F31886EA95E00E94AD1781E0DF91CF9127
:103220000895CF93DF93EC016EE975E08CEB97E0A6
:103230000E94F318BE018CEB97E00E94F3188EEA0F
:1032400095E00E94AD1781E0DF91CF9108951F9224
:103250000F920FB60F9211242F933F934F935F93CA
:103260006F937F938F939F93AF93BF93EF93FF934E
:103270008091B900887F803609F44AC0F0F5883221
:1032800009F4A7C018F5803109F49BC0B8F488236D
:1032900009F4F9C0883009F494C0FF91EF91BF910F
:1032A000AF919F918F917F916F915F914F913F91DE
:1032B0002F910F900FBE0F901F901895883109F431
:1032C00088C0803251F78093840714C0803409F499
:1032D0009DC040F48033B9F38833F9F680938407B6
:1032E00085ECB0C0803509F485C0883509F496C0F6
:1032F000883499F60E94E216D0CF883909F48CC040
:1033000038F5883729F050F4883611F0803729F6DF
:1033100083E08093860710925D0757C0883809F4D0
:103320007BC0803919F0803809F0B7CF80915D07F4
:10333000803208F071C0E0915D0781E08E0F8093CC
:103340005D078091BB00F0E0E35CF84F80833DC0F7
:10335000803B39F0E0F4803A09F479C0883A09F00A
:103360009CCF84E08093860710923A071092390729
:10337000E0913707F091380709958091390781115D
:103380000FC081E0809339071092170709C0803C75
:1033900009F4A6CF883C09F4A3CF883B09F07DCF80
:1033A000E0913A0781E08E0F80933A07F0E0E95E02
:1033B000F84F80818093BB0090913A078091390744
:1033C00029C0809161078093BB0085EC8093BC008D
:1033D00064CF9091830780918207981758F5E09108
:1033E000830781E08E0F80938307F0E0EE59F84F5A
:1033F0008081E9CFE091830781E08E0F809383077E
:103400008091BB00F0E0EE59F84F808390918307E4
:10341000809182079817C8F285E8D8CFE09183079A
:1034200081E08E0F809383078091BB00F0E0EE591E
:10343000F84F80838091850781115CCF81E0809374
:10344000600784EA8093BC001092860726CF85EC43
:103450008093BC001092860780915D07803230F423
:10346000E0915D07F0E0E35CF84F108260915D074A
:1034700070E0E0913B07F0913C078DE397E0099500
:1034800010925D070ACF1092840734CF1F920F92DB
:103490000FB60F9211242F933F938F939F93AF9367
:1034A000BF938091E0069091E106A091E206B09171
:1034B000E3063091DF0623E0230F2D3758F5019600
:1034C000A11DB11D2093DF068093E0069093E106D5
:1034D000A093E206B093E3068091E4069091E5069E
:1034E000A091E606B091E7060196A11DB11D80935B
:1034F000E4069093E506A093E606B093E706BF9135
:10350000AF919F918F913F912F910F900FBE0F9090
:103510001F90189526E8230F0296A11DB11DD2CF4A
:103520001F920F920FB60F9211248F939F93809149
:10353000E1009091E100937F9093E10083FF0FC041
:103540001092E90091E09093EB001092EC0092E36E
:103550009093ED0010925F0798E09093F00082FF47
:1035600022C093E09093E9009091F200992319F022
:103570009AE39093E8009091CD06992341F09091C1
:10358000CD0691509093CD06911101C05D9A909116
:103590005E07992341F090915E07915090935E07EA
:1035A000911101C0289A84FF18C08091E2008E7E9C
:1035B00081608093E2008091E1008F7E8093E10042
:1035C0008091CE068E7E80618093CE069F918F91F2
:1035D0000F900FBE0F901F90189580FFF7CF80912E
:1035E000E2008E7E80618093E2008091E1008E7E19
:1035F0008093E1008091CE068E7E8160E5CF1F92A0
:103600000F920FB60F921124CF92DF92EF92FF929A
:103610000F931F932F933F934F935F936F937F93DA
:103620008F939F93AF93BF93EF93FF93CF93DF93CA
:10363000CDB7DEB76C97DEBFCDBF1092E9008091A9
:10364000E80083FF25C068E0CE0145960E94590935
:1036500082EF8093E8008D8987FF39C09091E80060
:1036600090FFFCCF982F907609F034C19E894F8946
:10367000588D2F89F88C911131C0803861F5809177
:10368000CF068093F1001092F1008EEF8093E80056
:103690006C960FB6F894DEBF0FBECDBFDF91CF9111
:1036A000FF91EF91BF91AF919F918F917F916F911A
:1036B0005F914F913F912F911F910F91FF90EF904C
:1036C000DF90CF900F900FBE0F901F9018959EEF38
:1036D0009093E800C7CF1092F100D5CF913059F404
:1036E0008111D3CF4130510581F68091CF068D7F76
:1036F0008093CF06CACF933049F48111C6CF4130B1
:10370000510519F68091CF068260F2CF953041F4D1
:103710008091E80080FFFCCF20682093E300B5CFC4
:10372000963009F0A9C00B8D1C8D22E01092E900A3
:103730001092CB061092CA06F2122EC01092C90641
:103740001092C8060E9428091F8299E09983FA8284
:1037500091E09E8390EA98879AEF99872091CA0614
:103760003091CB06275F3F4F3C832B838D83109294
:10377000E9001092CB061092CA061093C906009376
:10378000C80649E050E0BE016F5F7F4F80E00E94B5
:1037900002090E94280979CF1093C9060093C80630
:1037A0000E949F04DC0112960D911C9101151105D8
:1037B00009F451C1D801ED91FC910480F581E02D0F
:1037C000BE016B5E7F4FC8010995009709F03EC1AD
:1037D000F80100851185EACFF3E0FF120EC08F8952
:1037E000882309F440C0823061F440E862E18DE052
:1037F00096E00E94DD26811148CF81E28093EB00A4
:1038000047CF813029F440E868E084E096E0F1CFCA
:10381000833099F70E949F04DC011296ED90FC9092
:103820008E010F5F1F4F6801E114F10479F0D70199
:10383000ED91FC910680F781E02DB801C701099553
:10384000080F111DF701E084F184EECFD8011C921E
:10385000F60101900020E9F73197BF016C197D094D
:1038600040E0C601C6CF6EEE75E0FB01449150E02A
:1038700080E80E94020909CF973009F4BECF983042
:1038800021F481E08093F10000CF993009F0FDCE62
:10389000837009F0B2CFE9E3F5E081E031E096E32F
:1038A0002191222371F08093E9003093EB00DF0136
:1038B00011972C912093EC009093ED008F5F87304F
:1038C00079F78EE78093EA001092EA008F8980935F
:1038D0005F07DBCE8B8D9C8D1092E9001092CB069A
:1038E0001092CA069093C9068093C806898D8111EB
:1038F00092C08E899D89913A49F4813209F07DCF39
:1039000047E050E064E071E080E0B3CF913209F02D
:1039100074CF833269F48F89988DB0E0A0E08093F2
:10392000000190930101A0930201B0930301ADCE79
:10393000803269F48091E80082FFFCCF67E084E088
:1039400091E00E9459098BEF8093E8009ECE82326D
:1039500009F09BCE8F8980930B01EEEFFFE78591F5
:1039600094918B3F9C4D51F1E0E0F8E0809104018F
:1039700090910501A0910601B0910701803B944010
:10398000A105B105F1F480910B0180FD1AC0EE3F55
:103990008AE0F80789F587E797E79183808380912C
:1039A00060008093CC0688E19BE00FB6F894A89560
:1039B000809360000FBE9093600067CEEEEFFAE058
:1039C000D5CF808191818737974709F05ECEA89542
:1039D000809160008861809360008091CC06809324
:1039E0006000EE3F2AE0F20789F08091FE0A909194
:1039F000FF0A9183808349CE808191818737980720
:103A000051F29093FF0A8093FE0AC5CF1092FF0AED
:103A10001092FE0A3ACE0E949F04DC0112960D918C
:103A20001C910115110509F4E8CED801ED91FC9126
:103A30000190F081E02DBE016B5E7F4FC8010995BA
:103A4000811123CEF80100851185EBCF18161906D8
:103A50000CF41BCED2CEF1E0FF12BECE62EF75E0C9
:103A600004CFCF93DF93EC01862F9FE098836A8386
:103A70009EE0998361E00E94950561E088810E9443
:103A8000950560E089810E94950561E08A81DF915A
:103A9000CF910C9428052F923F924F925F926F9294
:103AA0007F928F929F92AF92BF92CF92DF92EF92CE
:103AB000FF920F931F93CF93DF93CDB7DEB72E976F
:103AC0000FB6F894DEBF0FBECDBF4C011B015E8365
:103AD0004D833A872987EB86FC860D871E87250153
:103AE0003601DC015F965C934E935E975D967C9306
:103AF0006E935C9791963C932E939097DA961C92D6
:103B0000DA97D2961D921D921D921C92D59780E055
:103B100090E0AFE7B3E4F40186AB97ABA0AFB1AFF1
:103B200084E690E0A0E0B0E086A797A7A0ABB1AB99
:103B3000118E108EAA24A394B12CC12CD12C760105
:103B400097018601B701A601C4010E94A00A2FB700
:103B5000F8948091E0069091E106A091E206B09180
:103B6000E3062FBFF40146A557A560A971A9841BE0
:103B7000950BA60BB70B82A393A3A4A3B5A3F10146
:103B800080819181A281B381F40184AF95AFA6AF0A
:103B9000B7AFED81FE8180819181A281B381F40173
:103BA000E05CFF4F80839183A283B383E985FA852C
:103BB00080819181A281B381F401EC5BFF4F80830E
:103BC0009183A283B383A30192016B857C858D854C
:103BD0009E850E94D2272BA13CA14DA15EA10E94EF
:103BE00031299B01AC016AE979E989E99FE30E94E7
:103BF000D22720E030EC49E754E40E9431292B0120
:103C00003C01F401E85BFF4F408251826282738283
:103C10006FA178A589A59AA528EE33E040E050E091
:103C20000E942427CA01B9010E947A286B017C01F5
:103C30002BA13CA14DA15EA1CA01B9010E9461273F
:103C40009B01AC01C701B6010E94D227A3019201DA
:103C50000E9431296D837E838F839887F401E45B12
:103C6000FF4F60837183828393832DEC3CEC4CE4A3
:103C70005DE36BA17CA18DA19EA10E943129A701CA
:103C800096010E94D227A30192010E9431296B0163
:103C90007C01F401E05BFF4FC082D182E282F382BB
:103CA000A3019201C301B2010E9461272B013C01D3
:103CB000F401EC5AFF4F40825182628273822D815F
:103CC0003E814F815885CA01B9010E9461276983ED
:103CD0007A838B839C83F401E85AFF4F608371835E
:103CE000828393833496C082D182E282F38220E081
:103CF00030E0A901C301B2010E94CD2787FD21C098
:103D000020E030E0A90169817A818B819C810E9449
:103D1000CD2787FD16C020E030E0A901C701B6011C
:103D20000E94CD2787FD0DC0D4015A96AD90BC905E
:103D300009811A812B813C81B301A201C4010E9437
:103D4000A00AF40182AD81113BC0068CF78DE02DF5
:103D5000C080D180E280F380D4019696CD92DD922E
:103D6000ED92FC9299975C96ED91FC918081918106
:103D7000A281B381F40182A793A7A4A7B5A746A8FF
:103D800057A860AC71ACA3019201C701B6010E94B3
:103D90002C29181644F4D40196964D925D926D929A
:103DA0007C9299970DC0F40142A853A864A875A805
:103DB000A3019201C701B6010E94CD2787FDEBCF79
:103DC00081E0F40182AF2E960FB6F894DEBF0FBEED
:103DD000CDBFDF91CF911F910F91FF90EF90DF90BA
:103DE000CF90BF90AF909F908F907F906F905F909B
:103DF0004F903F902F9008956F927F928F929F9255
:103E0000AF92BF92CF92DF92EF92FF920F931F93E8
:103E1000CF93DF93E0EBF7E01382128288EE93E01A
:103E2000A0E0B0E084839583A683B78323E435E0E4
:103E300031832083ECEBF7E0138212828483958335
:103E4000A683B78385E595E09183808388248A944F
:103E5000982C95868486EFE0F9E01382128220E8A0
:103E600030E03583248380E490E097838683318734
:103E7000208793878287168A15861486178616866A
:103E800081E0858B848B938A828A918A808A878B52
:103E9000108E128E118E87E695E0918380838FEFCE
:103EA000858F81A3878F868F80A363E18CE099E063
:103EB0000E94311D62E189E099E00E94311D65E1B7
:103EC00086E099E00E94311D64E183E099E00E9460
:103ED000311D8DEC9CECACE4BFE38093FF08909324
:103EE0000009A0930109B09302091F921F9293E069
:103EF000692E6F9228EE722E7F92D1E4DF93C0EF8D
:103F0000CF931F921F92A12CB12C30E7C32E32E425
:103F1000D32EE12CF12C08EB11E423E938E047E93A
:103F200058E06BE978E08FE998E00E944B1D1F9202
:103F30001F926F927F92DF93CF931F921F92E12C7B
:103F4000F12C00EB11E427E238E04BE258E06FE29D
:103F500078E083E398E00E944B1D85E090E0909329
:103F600026088093250861E00E94950586E090E090
:103F7000909324088093230861E00E949505CCE08B
:103F8000D8E087E090E09983888388E090E09B8385
:103F90008A8384E090E09D838C831F821E821A8630
:103FA0001C861B861D861E861F86188A82E390E06B
:103FB000A0E0B0E0898B9A8BAB8BBC8B9E8A8D8AFC
:103FC00060E087E00E94950560E08A810E94950587
:103FD0008DB79EB740960FB6F8949EBF0FBE8DBFAB
:103FE00062E08C81DF91CF911F910F91FF90EF9054
:103FF000DF90CF90BF90AF909F908F907F906F9009
:104000000C949505CF93DF93CDB7DEB760970FB6CD
:10401000F894DEBF0FBECDBF789484B5826084BDB6
:1040200084B5816084BD85B5826085BD85B58160BC
:1040300085BD80916E00816080936E00109281003A
:1040400080918100826080938100809181008160F5
:1040500080938100809180008160809380008091B6
:1040600091008260809391008091910081608093A3
:104070009100809190008160809390008091C100B8
:1040800084608093C1008091C10082608093C100F0
:104090008091C10081608093C1008091C3008160E4
:1040A0008093C3008091C00082608093C0008091A3
:1040B000C20081608093C20080917A008460809306
:1040C0007A0080917A00826080937A0080917A00F1
:1040D000816080937A0080917A00806880937A0072
:1040E00010925F071092CF061092CE068091D700F3
:1040F00081608093D70080EA8093D80089B5806181
:1041000089BD89B5826089BD09B400FEFDCF61E03B
:1041100070E080E090E00E94A2088091D8008F7C3F
:1041200080618093D8008091E000807F8093E000E0
:104130008091E1008E7E8093E1008DE08093E2002B
:10414000559A209A8FEF9FEF9093C9078093C807E5
:1041500087EB95E00E94AD1782E080932B098CE3FA
:1041600080932A0980912C098F3F09F44DC161E0A9
:1041700080912E090E94950561E0809130090E948E
:10418000950580913009082E000C990BFC01EF5920
:10419000F94FE491F0E0EE0FFF1FEB5BF94F259133
:1041A00034913093370920933609FC01E058F94FD8
:1041B000E491E0933C0980912E09082E000C990BA4
:1041C000FC01EF59F94FE491F0E0EE0FFF1FEB5BBC
:1041D000F94F259134913093390920933809FC0126
:1041E000E058F94FE491E0933D0980913109811144
:1041F0003EC061E080912C090E94950561E08091AC
:104200002D090E94950580912D09082E000C990B0F
:10421000FC01EF59F94FE491F0E0EE0FFF1FEB5B6B
:10422000F94F259134913093350920933409FC01DD
:10423000E058F94FE491E0933B0980912C09082E56
:10424000000C990BFC01EF59F94FE491F0E0EE0FEF
:10425000FF1FEB5BF94F2591349130933309209385
:104260003209FC01E058F94FE491E0933A0980915A
:104270003109882309F43BC00FB70983F894809172
:10428000D006811127C0E2E7F6E08491E1E9F6E08B
:104290009491E82FF0E0EE0FFF1FE95CF94FA59134
:1042A000B491EC91E92321F461E081E10E942805B9
:1042B00061E081E10E9495058CB580618CBD8CB573
:1042C00080648CBD61E08FE00E94950561E080E133
:1042D0000E9495058091D0068F5F8093D00619814A
:1042E0001FBF8CB58C7F8CBD8DB581608DBD61E0AD
:1042F00080912F090E94950561E080912F090E940D
:10430000280561E070E080E090E00E94A20860E093
:1043100080912F090E9428056AE070E080E090E01B
:104320000E94A20861E080912F090E9428058EEA70
:104330000E94800785ED0E94800780E80E94800728
:1043400088EA0E9480078FE30E94800783ED0E9425
:10435000800780E00E94800780E40E9480078DE84B
:104360000E94800784E10E94800780E20E9480070B
:1043700080E00E94800781EA0E94800788EC0E940A
:1043800080078AED0E94800782E10E94800781E811
:104390000E9480078FEC0E94800789ED0E948007B1
:1043A00081EF0E9480078BED0E94800780E40E94CD
:1043B000800784EA0E94800786EA0E9480078FEACD
:1043C0000E9480078091170990911809892B99F50F
:1043D00000E216E01A830983E981FA816491662379
:1043E00061F08CEB97E00E941F0A09811A810F5F30
:1043F0001F4F1A830983892B79F76FE875E08CEBDF
:1044000097E00E941C17FFCF109215071092140717
:1044100010928D071092AF070E94560587E194E035
:10442000909338078093370788E194E090933C0796
:1044300080933B075CCFE8E2F1E080E094E0DF01AD
:104440008C011D9201501040E1F70E94D407609149
:10445000260170912701072E000C880B990B0E94F2
:104460007C286093930870939408809395089093A8
:1044700096086091240170912501072E000C880B8D
:10448000990B0E947C2860932708709328088093DA
:10449000290890932A0864EF71E080E090E00E9480
:1044A000A2088CE099E00E94100D6093D5067093ED
:1044B000D6068093D7069093D80686E099E00E94AE
:1044C000100D6093D1067093D2068093D30690931B
:1044D000D40668EE73E080E090E00E94A20844E019
:1044E000242E312C2FB7F8948091E0069091E106AC
:1044F000A091E206B091E3062FBF4091DB065091F8
:10450000DC066091DD067091DE068C019D01041BC6
:10451000150B260B370BB901A801493E5340610525
:10452000710508F42BC38093DB069093DC06A093FF
:10453000DD06B093DE068CE099E00E94100D2B01A1
:104540003C0189E099E00E94100D69837A838B8396
:104550009C8386E099E00E94100D6D837E838F839B
:10456000988783E099E00E94100D4B015C01A30144
:104570009201C301B2010E949E29811139C0298193
:104580003A814B815C81CA01B9010E949E2988232E
:1045900031F08DEC95E00E941119811130C06091CD
:1045A0002601709127016E5C7F4F072E000C880B4F
:1045B000990B0E947C289B01AC01C301B2010E94AF
:1045C0002C29181634F482EC95E00E94FB18811116
:1045D00016C020E030E048E454E469817A818B81A0
:1045E0009C810E942C2918160CF451C080E008C050
:1045F00082EC95E00E941119882309F4C0CF81E074
:104600008093DA062D813E814F815885CA01B90118
:104610000E949E29811140C0A5019401C501B401E9
:104620000E949E29882331F084EE95E00E941119A2
:10463000811139C060912401709125016E5C7F4F1A
:10464000072E000C880B990B0E947C289B01AC0163
:104650006D817E818F8198850E942C29181634F4F3
:1046600089ED95E00E94FB1881111DC020E030E02B
:1046700048E454E4C501B4010E942C2910E0181646
:104680009CF484EE95E00E94FB18182F0DC08DEC71
:1046900095E00E94FB18B4CF89ED95E00E941119B6
:1046A000882309F4B9CF11E01093D906C090FF0810
:1046B000D0900009E0900109F0900209A70196014D
:1046C00060E070E080E89FE30E94602769877A8756
:1046D0008B879C872091D5063091D6064091D706CE
:1046E0005091D806C701B6010E9431296D877E8797
:1046F0008F87988B29853A854B855C85C301B201EC
:104700000E9431299B01AC016D857E858F8598893A
:104710000E9461272B013C014092D5065092D6069B
:104720006092D7067092D8062091D1063091D206B9
:104730004091D3065091D406C701B6010E94312999
:104740006B017C0129853A854B855C856D817E8175
:104750008F8198850E9431299B01AC01C701B60168
:104760000E9461276093D1067093D2068093D3068E
:104770009093D40640929B0850929C0860929D08AA
:1047800070929E0860932F087093300880933108D0
:10479000909332086091260170912701072E000C3A
:1047A000880B990B0E947C286B017C01C0929308B6
:1047B000D0929408E0929508F092960860912401B6
:1047C00070912501072E000C880B990B0E947C2804
:1047D00060932708709328088093290890932A08EB
:1047E000A3019201C701B6010E9460276B017C0101
:1047F00020E030E0A9010E942C29181624F0F7FAD5
:10480000F094F7F8F094B701A6018FE998E00E94C0
:104810003F1620912F083091300840913108509177
:10482000320860912708709128088091290890919A
:104830002A080E9460276B017C0120E030E0A9017A
:104840000E942C29181624F0F7FAF094F7F8F09447
:10485000B701A60183E398E00E943F168091D90832
:10486000882321F08FE998E00E945B0B80916D080E
:10487000882321F083E398E00E945B0B00912508D8
:104880008091DA06882309F419C261E0802F0E9422
:10489000950560E0802F0E942805009123081123D0
:1048A00009F41AC261E0802F0E94950560E0802F14
:1048B0000E942805A8E2B1E0E0E0F4E01D92319703
:1048C000E9F781E0809323098093240901E010E057
:1048D00010932209009321091093200900931F09C6
:1048E00010921C0910921B0910921E0910921D09AA
:1048F00060EF75E08FE099E00E94F3186091260167
:10490000709127018FE099E00E94771769EF75E0B9
:104910008FE099E00E94F318809117089091180891
:10492000892B61F4809116086CEF75E0811102C04B
:1049300063E076E08FE099E00E94F31810921C0982
:1049400010921B092AE030E030931E0920931D09C4
:1049500066E076E08FE099E00E94F3184091D5067A
:104960005091D6066091D7067091D80622E08FE06C
:1049700099E00E94F81769EF75E08FE099E00E94D6
:10498000F31810921C0910921B0984E190E0909397
:104990001E0980931D096FE076E08FE099E00E9488
:1049A000F31860912401709125018FE099E00E9435
:1049B000771769EF75E08FE099E00E94F318809116
:1049C000170890911808019761F4809116086CEF10
:1049D00075E0811102C063E076E08FE099E00E940B
:1049E000F31810921C0910921B09AEE1B0E0B093CD
:1049F0001E09A0931D0968E176E08FE099E00E940E
:104A0000F3184091D1065091D2066091D30670916F
:104A1000D40622E08FE099E00E94F81769EF75E074
:104A20008FE099E00E94F31810921C0910921B0964
:104A3000E8E2F0E0F0931E09E0931D098091170869
:104A400090911808029701F5809121089091220811
:104A500061E276E08F3F980739F0880F991FFC01DB
:104A6000E45FFE4F608171818FE099E00E94F3184E
:104A70008091160868E276E0811102C063E076E07A
:104A80008FE099E00E94F3180E94D4076BE276E071
:104A90008CEB97E00E94F31880E293E00E94C0172D
:104AA0006DE376E08CEB97E00E94F318809126018D
:104AB000909127010E94C0176DE476E08CEB97E09F
:104AC0000E94F31880912401909125010E94C01743
:104AD0006DE576E08CEB97E00E94F3186091D506C7
:104AE0007091D6068091D7069091D8060E94DE1864
:104AF00067E676E08CEB97E00E94F3186091D106B0
:104B00007091D2068091D3069091D4060E94DE184F
:104B100061E776E08CEB97E00E94F31869817A8177
:104B20008B819C810E94DE186FE776E08CEB97E02A
:104B30000E94F318C501B4010E94DE186DE876E00A
:104B40008CEB97E00E94F318609197087091980899
:104B50008091990890919A080E94DE1869E976E0A0
:104B60008CEB97E00E94F31860912B0870912C0851
:104B700080912D0890912E080E94DE188FB7F8942E
:104B8000C090E006D090E106E090E206F090E306E7
:104B90008FBF8091190890911A08A0911B08B091BD
:104BA0001C08B701A601481B590B6A0B7B0B8091AF
:104BB0001D0890911E08A0911F08B091200884172D
:104BC0009507A607B70708F053C080910C080E940C
:104BD000FF048C01909315088093140880911208AB
:104BE0009091130808171907D9F101301105C1F583
:104BF00080910E080E94FF044091140850911508FE
:104C0000609116082091170830911808662309F45E
:104C1000C2C02115310509F070C0209126013091E4
:104C200027018417950709F465C085E090E0280FF7
:104C3000391F253F01E0300714F024EF31E028321E
:104C4000310514F428E230E0309327012093260147
:104C5000C0921908D0921A08E0921B08F0921C0822
:104C6000809114089091150890931308809312086E
:104C7000809110080E94FF04892BC1F462E370E068
:104C800080E090E00E94A208809110080E94FF043A
:104C9000892B61F48091160891E08927809316088A
:104CA00064EF71E080E090E00E94A20880E090E074
:104CB000892B09F417CC0E94000011CC6091970851
:104CC000709198088091990890919A080E944428C0
:104CD000802F0E94D105E1CD60912B0870912C08A6
:104CE00080912D0890912E080E944428802F0E94C8
:104CF000D105E0CD8BEF9FEF9ACF21303105F1F454
:104D0000209124013091250184179507A1F085E0B9
:104D100090E0280F391F253F11E0310714F024EFF0
:104D200031E02832310514F428E230E030932501D7
:104D3000209324018DCF8BEF9FEFEBCF22303105F5
:104D400009F086CF20912108309122088417950719
:104D500011F40FEF1FEF020F131FC8010496B101EA
:104D60000E9410279093220880932108880F991F92
:104D7000FC01E45EFE4F20813181309327012093B6
:104D800026018C5E9E4FDC018D919C9190932501B4
:104D9000809324015DCF8417950711F40FEF1FEF67
:104DA000020F131FC801039663E070E00E941027F2
:104DB00090931808809317084BCFEF92FF920F93B0
:104DC0001F93CF93DF93F82E192FE62E042F81E047
:104DD000860F880F0E94D40883E00E94D408CF2D4C
:104DE000D12FEC0EFD2EF11CCE15DF05B9F007FF1B
:104DF00013C0FE0184910E94D408182F80E00E9405
:104E0000D408812321968111EFCFDF91CF911F919B
:104E10000F91FF90EF9008958881EDCF81E0F5CF5D
:104E200097FB072E16F4009407D077FD09D00E9457
:104E30004C2707FC05D03EF4909581959F4F08952F
:104E4000709561957F4F0895A1E21A2EAA1BBB1B96
:104E5000FD010DC0AA1FBB1FEE1FFF1FA217B30746
:104E6000E407F50720F0A21BB30BE40BF50B661F5C
:104E7000771F881F991F1A9469F760957095809520
:104E800090959B01AC01BD01CF010895EE0FFF1F6E
:104E90000590F491E02D0994AA1BBB1B51E107C0BA
:104EA000AA1FBB1FA617B70710F0A61BB70B881FBA
:104EB000991F5A95A9F780959095BC01CD01089549
:104EC0005058BB27AA270E9478270C94F2280E94EA
:104ED000E42838F00E94EB2820F039F49F3F19F4C1
:104EE00026F40C94E1280EF4E095E7FB0C94DB2803
:104EF000E92F0E94032958F3BA1762077307840742
:104F0000950720F079F4A6F50C9425290EF4E09588
:104F10000B2EBA2FA02D0B01B90190010C01CA0173
:104F2000A0011124FF27591B99F0593F50F4503E1E
:104F300068F11A16F040A22F232F342F4427585F10
:104F4000F3CF469537952795A795F0405395C9F728
:104F50007EF41F16BA0B620B730B840BBAF09150E0
:104F6000A1F0FF0FBB1F661F771F881FC2F70EC07F
:104F7000BA0F621F731F841F48F487957795679552
:104F8000B795F7959E3F08F0B0CF9395880F08F03E
:104F90009927EE0F9795879508950E94B72808F4F2
:104FA00081E008950E94E6270C94F2280E94EB28E5
:104FB00058F00E94E42840F029F45F3F29F00C9457
:104FC000DB2851110C9426290C94E1280E94032916
:104FD00068F39923B1F3552391F3951B550BBB2728
:104FE000AA2762177307840738F09F5F5F4F220F6D
:104FF000331F441FAA1FA9F335D00E2E3AF0E0E864
:1050000032D091505040E695001CCAF72BD0FE2FAD
:1050100029D0660F771F881FBB1F26173707480741
:10502000AB07B0E809F0BB0B802DBF01FF279358F9
:105030005F4F3AF09E3F510578F00C94DB280C94BA
:1050400026295F3FE4F3983ED4F3869577956795DC
:10505000B795F7959F5FC9F7880F911D969587952E
:1050600097F90895E1E0660F771F881FBB1F62174D
:1050700073078407BA0720F0621B730B840BBA0B0B
:10508000EE1F88F7E09508950E944B286894B111AF
:105090000C94262908950E940B2988F09F5798F0B8
:1050A000B92F9927B751B0F0E1F0660F771F881F2D
:1050B000991F1AF0BA95C9F714C0B13091F00E9447
:1050C0002529B1E008950C942529672F782F88278A
:1050D000B85F39F0B93FCCF3869577956795B3956E
:1050E000D9F73EF490958095709561957F4F8F4FDD
:1050F0009F4F0895E89409C097FB3EF490958095E2
:10510000709561957F4F8F4F9F4F9923A9F0F92F8D
:1051100096E9BB279395F695879577956795B7950B
:10512000F111F8CFFAF4BB0F11F460FF1BC06F5FF1
:105130007F4F8F4F9F4F16C0882311F096E911C003
:10514000772321F09EE8872F762F05C0662371F024
:1051500096E8862F70E060E02AF09A95660F771F38
:10516000881FDAF7880F9695879597F90895990F14
:105170000008550FAA0BE0E8FEEF16161706E80721
:10518000F907C0F012161306E407F50798F0621B42
:10519000730B840B950B39F40A2661F0232B242B17
:1051A000252B21F408950A2609F4A140A6958FEF36
:1051B000811D811D089597F99F6780E870E060E088
:1051C00008959FEF80EC089500240A9416161706A0
:1051D00018060906089500240A94121613061406E8
:1051E00005060895092E0394000C11F4882352F04B
:1051F000BB0F40F4BF2B11F460FF04C06F5F7F4F03
:105200008F4F9F4F089557FD9058440F551F59F0E9
:105210005F3F71F04795880F97FB991F61F09F3FA3
:1052200079F087950895121613061406551FF2CFCC
:105230004695F1DF08C0161617061806991FF1CF1C
:1052400086957105610508940895E894BB27662743
:105250007727CB0197F908950E94B72808F48FEFBC
:1052600008950E9444290C94F2280E94E42838F002
:105270000E94EB2820F0952311F00C94DB280C946D
:10528000E12811240C9426290E94032970F3959F8C
:10529000C1F3950F50E0551F629FF001729FBB272D
:1052A000F00DB11D639FAA27F00DB11DAA1F649FC9
:1052B0006627B00DA11D661F829F2227B00DA11D7C
:1052C000621F739FB00DA11D621F839FA00D611D02
:1052D000221F749F3327A00D611D231F849F600D23
:1052E000211D822F762F6A2F11249F5750409AF04C
:1052F000F1F088234AF0EE0FFF1FBB1F661F771FD8
:10530000881F91505040A9F79E3F510580F00C94A2
:10531000DB280C9426295F3FE4F3983ED4F386956E
:1053200077956795B795F795E7959F5FC1F7FE2B42
:10533000880F911D9695879597F908950E94B72833
:10534000880B990B089581E090E0F8940C94A829BB
:04535000F894FFCFFF
:10535400FFFFFFFF00E1000000000000A506B0060B
:10536400B706BF06AE0136012C01C800F4014A019C
:105374002C01DC00A401F401000000000000000086
:105384000000000000000000000000000000000019
:105394000000000000000000000000000000000009
:1053A40000000000000000000000000000000000F9
:1053B4000000000000000080808000000000000069
:1053C4000000000000000000008080C0C000000059
:1053D40000000000000000000000000000000000C9
:1053E40000000000000000000000000000000000B9
:1053F40000000000000000000000000000000000A9
:1054040000000000000000000000000080C0E0F088
:10541400F8FCF8E0000000000000000000000000BC
:1054240000000000008080808080008080000000F8
:1054340000808080808000FFFFFF000000008080EB
:10544400808000008080000080FFFF8080008080DA
:105454000080808080008080000000000080800048
:10546400008C8E84000080F8F8F8800000000000B2
:105474000000000000000000F0F0F0F0F0F0F0F0A8
:10548400F0F0F0F0E0E0C08000E0FCFEFFFFFF7F02
:10549400FFFFFFFFFF00000000000000000000000D
:1054A400000000FEFFC70101010183FFFF00007C33
:1054B400FEC70101010183FFFFFF0038FEC783011E
:1054C400010183C7FFFF000001FFFF010100FFFF8F
:1054D4000701010100007FFF80000000FFFF7F0043
:1054E40000FFFFFF000001FFFFFF010000000000BC
:1054F4000000000000000000030F3F7F7FFFFFFF5C
:10550400FFFFFFFFE7C7C78F8F9FBFFFFFC3C0F039
:10551400FFFFFFFFFFFCFCFCFCFCFCFCFCF8F8F0CC
:10552400F0E0C000010303030303010303000000D0
:10553400000103030303010103010000000103034D
:10554400030301010303000000030300000003033D
:105554000000000000000001030303030301000036
:10556400000103010000000303010000000000002B
:10557400000000000000000000000080C0E0F0F91E
:10558400FFFFFFFFFF3F1F0F87C7F7FFFF1F1F3DF1
:10559400FCF8F8F8F87C7DFFFFFFFFFFFFFFFF7FBB
:1055A4003F0F070030300000000000000000000042
:1055B400000000000000000000000000FEFEFC00EF
:1055C40000000000000000000000000000000000D7
:1055D4000000000000E0C000000000000000000027
:1055E4000000303000000000000000000000000057
:1055F400000000000000000000C0FEFFFFFFFFFFEE
:10560400FFFFFFFF7F7F3F1F0F071F7FFFFFF8F89C
:10561400FFFFFFFFFFFEF8E00000000100000000B4
:1056240000000000FEFE000000FCFEFC0C06060E5E
:10563400FCF80000F0F81C0E0606060CFFFFFF0045
:1056440000FEFE00000000FCFEFC00183C7E66E646
:10565400CE84000006FFFF0606FCFEFC0C060606D0
:105664000000FEFE0000C0F8FC4E4646464E7C7824
:1056740040183C76E6CECC8000000000000000001C
:1056840000000000000000000000000001070F1FE0
:105694001F3F3F3F3F1F0F030000000000000000BA
:1056A400000000000F0F0000000F0F0F00000000AB
:1056B4000F0F000003070E0C18180C060F0F0F0035
:1056C40000010F0E0C180C0F070100040E0C180C2F
:1056D4000F070000000F0F00000F0F0F0000000065
:1056E40000000F0F00000007070C0C181C0C060626
:1056F40000040E0C180C0F0700000000000000004E
:105704000000000000000000000000000000000095
:105714000000000000000000000000000000000085
:105724000000000000000000000000000000000075
:105734000000000000000000000000000000000065
:105744000000000000000000000000000000000055
:105754000000000000000000000000000000000045
:105764000000000000000000000000000000000035
:105774000000000000000000000103070F1F3F7F2E
:105784000080C0E0F0F8FCFE00C180810000000051
:10579400000000700443043C1619043C0429041A54
:1057A40004000000001F0A9A09400A350A860A44C8
:1057B4000A620A00000000E2126D093C163B16035F
:1057C40010190487155F157B156F158E151904A81C
:1057D40010A710490DA60EA8148B141314B4130D9E
:1057E4000A006E616E00696E66006F76660045722F
:1057F400726F723A200020486954454D500020547D
:10580400435F4F70656E0050697A7A612054696D08
:10581400650054435F5570506C6174650054435F78
:1058240055704865617465720054435F4C77506CE1
:105834006174650054435F4C774865617465720018
:105844005550205447543A2000204300203C6564BE
:10585400697400202A00555020504C543A20004CC2
:1058640057205447543A20004C5720504C543A2067
:105874000050726573657400203C003E4C696D698C
:105884007448656174657254454D503A003E7461C4
:105894007267657454454D505F55703A003E7461AB
:1058A4007267657454454D505F4C773A003E5570AD
:1058B400506C6174653A003E4C77506C6174653A83
:1058C400003E54435F55704865617465723A003E0A
:1058D40054435F4C774865617465723A003E4F7576
:1058E400747075745F55703A003E4F7574707574BA
:1058F4005F4C773A004E61706F6C6574616E610045
:10590400526F6D616E610063616C7A6F6E65003217
:0859140032302F323030000068
:00000001FF
